HDR23092015PPM1652941559231259595959.dep 07527000                      
1         2309151             CHK       20000.00            2309201523092015                              23092015DHK                                                         BDT                           RV                            015                           01527424                                                                                                                0020003800                                                                                                                                                                                                                                                                                      15092300000019CustRef1                                          DS230915                                                                                                                                                                                                                                                                                                                                     CheckInvoice11245525                                                                                                                                                                                                                                                                                                                                                                                                                                                                                                                                                                                                            
1         2309152             CHK       5000.00             2309201523092015                              23092015DHK                                                         BDT                           HV                            015                           01527424                                                                                                                0020003800                                                                                                                                                                                                                                                                                      15092300000020CustRef1                                          DS230915                                                                                                                                                                                                                                                                                                                                     CheckInvoice2556625                                                                                                                                                                                                                                                                                                                                                                                                                                                                                                                                                                                                             
1         2309153             CHK       1000.00             2309201523092015                              23092015DHK                                                         BDT                           RV                            015                           01527424                                                                                                                G01000020010001                                                                                                                                                                                                                                                                                 15092300000021CustRef1                                          DS230915                                                                                                                                                                                                                                                                                                                                     CheckInvoice21255479                                                                                                                                                                                                                                                                                                                                                                                                                                                                                                                                                                                                            
1         2309155             CHK       5000.00             2309201523092015                              23092015DHK                                                         BDT                           RV                            015                           01527424                                                                                                                0200100011                                                                                                                                                                                                                                                                                      15092300000022CustRef1                                          DS2301                                                                                                                                                                                                                                                                                                                                       ChkInv123                                                                                                                                                                                                                                                                                                                                                                                                                                                                                                                                                                                                                       
1         2309156             CHK       8000.00             2309201523092015                              23092015DHN                                                         BDT                           HV                            015                           01527424                                                                                                                010000200100012                                                                                                                                                                                                                                                                                 15092300000023CustRef2                                          DS2302                                                                                                                                                                                                                                                                                                                                       ChkInv321                                                                                                                                                                                                                                                                                                                                                                                                                                                                                                                                                                                                                       
TRL230920157       
